:020000040800F2
:1000000000000320E10E00082D0F00082D0F00084E
:100010002D0F00082D0F00082D0F00080000000014
:100020000000000000000000000000002D0F00088C
:100030002D0F0008000000002D0F0008090E000819
:100040002D0F00082D0F00082D0F00082D0F0008A0
:100050002D0F00082D0F00082D0F00082D0F000890
:100060002D0F00082D0F00082D0F00082D0F000880
:100070002D0F00082D0F00082D0F00082D0F000870
:100080002D0F00082D0F0008250E00082D0F000869
:100090002D0F00082D0F00082D0F00082D0F000850
:1000A0002D0F0008350E00082D0F00082D0F000839
:1000B000790E00082D0F00082D0F00082D0F0008E5
:1000C0002D0F00082D0F00082D0F00082D0F000820
:1000D0002D0F00082D0F00082D0F00082D0F000810
:1000E0002D0F00082D0F00082D0F00082D0F000800
:1000F0002D0F00082D0F00082D0F00082D0F0008F0
:100100002D0F00082D0F00082D0F00082D0F0008DF
:100110002D0F00082D0F00082D0F00082D0F0008CF
:100120002D0F00082D0F00082D0F00082D0F0008BF
:100130002D0F00082D0F00082D0F00082D0F0008AF
:100140002D0F00082D0F00082D0F00082D0F00089F
:100150002D0F00082D0F00082D0F00082D0F00088F
:100160002D0F00082D0F00082D0F00082D0F00087F
:100170002D0F00082D0F00082D0F000800000000B3
:100180002D0F00082D0F00082D0F00082D0F00085F
:100190002D0F00082D0F00082D0F00082D0F00084F
:0C01A0002D0F00082D0F00082D0F000887
:1001B00070B54FF0FF0C4CF4E06C1CEA11541DBFFD
:1001C0001CEA135594EA0C0F95EA0C0F00F0DEF8C8
:1001D0002C4481EA030621EA4C5123EA4C5350EAAD
:1001E000013518BF52EA033541F4801143F48013FE
:1001F00038D0A0FB02CE4FF00005E1FB02E506F08F
:100200000042E0FB03E54FF00006E1FB03569CF0E3
:10021000000F18BF4EF0010EA4F1FF04B6F5007FE9
:1002200064F5407404D25FEA4E0E6D4146EB06065B
:1002300042EAC62141EA55514FEAC52040EA5E50E4
:100240004FEACE2EB4F1FD0C88BFBCF5E06F1ED88E
:10025000BEF1004F08BF5FEA500E50F1000041EBC5
:10026000045170BD06F0004646EA010140EA020072
:1002700081EA0301B4EB5C04C2BFD4EB0C0541EA94
:10028000045170BD41F480114FF0000E013C00F3A9
:10029000AB8014F1360FDEBF002001F0004170BDCD
:1002A000C4F10004203C35DA0C341BDC04F11404E6
:1002B000C4F1200500FA05F320FA04F001FA05F272
:1002C00040EA020001F0004221F0004110EBD3703F
:1002D00021FA04F642EB06015EEA430E08BF20EA6B
:1002E000D37070BDC4F10C04C4F1200500FA04F30E
:1002F00020FA05F001FA04F240EA020001F00041A0
:1003000010EBD37041F100015EEA430E08BF20EA12
:10031000D37070BDC4F1200500FA05F24EEA020E5A
:1003200020FA04F301FA05F243EA020321FA04F089
:1003300001F0004121FA04F220EA020000EBD37040
:100340005EEA430E08BF20EAD37070BD94F0000F40
:100350000FD101F00046400041EB010111F4801F74
:1003600008BF013CF7D041EA060195F0000F18BF25
:10037000704703F00046520043EB030313F4801F61
:1003800008BF013DF7D043EA0603704794EA0C0F1B
:100390000CEA135518BF95EA0C0F0CD050EA410631
:1003A00018BF52EA4306D1D181EA030101F00041AE
:1003B0004FF0000070BD50EA410606BF10461946D6
:1003C00052EA430619D094EA0C0F02D150EA0136E2
:1003D00013D195EA0C0F05D152EA03361CBF104623
:1003E00019460AD181EA030101F0004141F0FE41C2
:1003F00041F470014FF0000070BD41F0FE4141F446
:10040000780170BD81F0004102E000BF83F000433D
:1004100030B54FEA41044FEA430594EA050F08BF9F
:1004200090EA020F1FBF54EA000C55EA020C7FEA63
:10043000645C7FEA655C00F0E2804FEA5454D4EBE0
:100440005555B8BF6D420CDD2C4480EA020281EAAA
:10045000030382EA000083EA010180EA020281EAE2
:100460000303362D88BF30BD11F0004F4FEA013134
:100470004FF4801C4CEA113102D0404261EB410143
:1004800013F0004F4FEA03334CEA133302D05242C9
:1004900063EB430394EA050F00F0A780A4F1010485
:1004A000D5F1200E0DDB02FA0EFC22FA05F28018BF
:1004B00041F1000103FA0EF2801843FA05F35941A5
:1004C0000EE0A5F120050EF1200E012A03FA0EFC24
:1004D00028BF4CF0020C43FA05F3C01851EBE3714E
:1004E00001F0004507D54FF0000EDCF1000C7EEB6B
:1004F00000006EEB0101B1F5801F1BD3B1F5001FA9
:100500000CD349085FEA30004FEA3C0C04F10104C7
:100510004FEA445212F5800F80F09A80BCF1004FF0
:1005200008BF5FEA500C50F1000041EB045141EA72
:10053000050130BD5FEA4C0C404141EB0101013C3B
:1005400028BFB1F5801FE9D291F0000F04BF01462A
:100550000020B1FA81F308BF2033A3F10B03B3F1FC
:1005600020020CDA0C3208DD02F1140CC2F10C028C
:1005700001FA0CF021FA02F10CE002F11402D8BFEA
:10058000C2F1200C01FA02F120FA0CFCDCBF41EAB6
:100590000C019040E41AA2BF01EB0451294330BD85
:1005A0006FEA04041F3C1CDA0C340EDC04F1140462
:1005B000C4F1200220FA04F001FA02F340EA030039
:1005C00021FA04F345EA030130BDC4F10C04C4F17F
:1005D000200220FA02F001FA04F340EA030029465F
:1005E00030BD21FA04F0294630BD94F0000F83F4A9
:1005F000801306BF81F480110134013D4EE77FEA8C
:10060000645C18BF7FEA655C29D094EA050F08BFD7
:1006100090EA020F05D054EA000C04BF19461046B8
:1006200030BD91EA030F1EBF0021002030BD5FEAFC
:10063000545C05D14000494128BF41F0004130BD24
:1006400014F580043CBF01F5801130BD01F0004578
:1006500045F0FE4141F470014FF0000030BD7FEAEB
:10066000645C1ABF194610467FEA655C1CBF0B46E6
:10067000024650EA013406BF52EA033591EA030FFD
:1006800041F4002130BD00BF90F0000F04BF0021F5
:10069000704730B54FF4806404F132044FF0000528
:1006A0004FF0000150E700BF90F0000F04BF0021A1
:1006B000704730B54FF4806404F1320410F0004507
:1006C00048BF40424FF000013EE700BF42004FEA02
:1006D000E2014FEA31014FEA02701FBF12F07F437F
:1006E00093F07F4F81F06051704732F07F4208BF36
:1006F000704793F07F4F04BF41F40021704730B53D
:100700004FF4607401F0004521F000411CE700BF88
:1007100050EA010208BF704730B54FF000050AE00B
:1007200050EA010208BF704730B511F0004502D50C
:10073000404261EB41014FF4806404F132045FEA0E
:10074000915C3FF4D8AE4FF003025FEADC0C18BFB7
:1007500003325FEADC0C18BF033202EBDC02C2F1A9
:10076000200300FA03FC20FA02F001FA03FE40EA3B
:100770000E0021FA02F11444BDE600BF4FEA410227
:10078000B2F1E04324BFB3F5001CDCF1FE5C0DD9EF
:1007900001F0004C4FEAC0024CEA5070B2F1004F39
:1007A00040EB830008BF20F00100704711F0804F3C
:1007B00021D113F13872BCBF01F00040704741F401
:1007C00080114FEA5252C2F11802C2F1200C10FA05
:1007D0000CF320FA02F018BF40F001004FEAC123E9
:1007E0004FEAD32303FA0CFC40EA0C0023FA02F38D
:1007F0004FEA4303CCE77FEA625307D150EA013363
:100800001EBF4FF0FE4040F44000704701F0004032
:1008100040F0FE4040F40000704700BF80F0004010
:1008200002E000BF81F0004142001FBF5FEA4103C8
:1008300092EA030F7FEA226C7FEA236C6AD04FEAC8
:100840001262D2EB1363C1BFD2184140484041400D
:10085000B8BF5B42192B88BF704710F0004F40F4BF
:10086000000020F07F4018BF404211F0004F41F4DB
:10087000000121F07F4118BF494292EA030F3FD0A7
:10088000A2F1010241FA03FC10EB0C00C3F12003BA
:1008900001FA03F100F0004302D5494260EB400049
:1008A000B0F5000F13D3B0F1807F06D340084FEAB4
:1008B000310102F10102FE2A51D2B1F1004F40EBA9
:1008C000C25008BF20F0010040EA03007047490011
:1008D00040EB0000013A28BFB0F5000FEDD2B0FAAE
:1008E00080FCACF1080CB2EB0C0200FA0CF0AABFD1
:1008F00000EBC25052421843BCBFD040184370476F
:1009000092F0000F81F4000106BF80F40000013274
:10091000013BB5E74FEA41037FEA226C18BF7FEA4B
:10092000236C21D092EA030F04D092F0000F08BF8D
:100930000846704790EA010F1CBF0020704712F074
:100940007F4F04D1400028BF40F00040704712F1B3
:1009500000723CBF00F50000704700F0004343F018
:10096000FE4040F4000070477FEA226216BF08464E
:100970007FEA23630146420206BF5FEA412390EA11
:10098000010F40F4800070474FF0000304E000BF07
:1009900010F0004348BF40425FEA000C08BF7047B8
:1009A00043F0964301464FF000001CE050EA01027C
:1009B00008BF70474FF000030AE000BF50EA010291
:1009C00008BF704711F0004302D5404261EB41017E
:1009D0005FEA010C02BF84460146002043F0B643A3
:1009E00008BFA3F18053A3F50003BCFA8CF2083AC8
:1009F000A3EBC25310DB01FA02FC634400FA02FCD1
:100A0000C2F12002BCF1004F20FA02F243EB0200D7
:100A100008BF20F00100704702F1200201FA02FC39
:100A2000C2F1200250EA4C0021FA02F243EB02002C
:100A300008BF20EADC70704710B5054C237833B945
:100A4000044B13B10448AFF300800123237010BDA1
:100A50000000002000000000780F000808B5034BDC
:100A60001BB103490348AFF3008008BD000000003C
:100A700004000020780F000808B500F03DF800F0F1
:100A800099F800F013F900F027F900F045F900F0AB
:100A900089F9154A936843F080439360124B1B68B1
:100AA00013F0020FFAD0104CE06CFFF76DFFFFF768
:100AB0000DFE0BA3D3E90023FFF77AFB00220B4BBB
:100AC000FFF776FBFFF75AFE094B1860E26C094B03
:100AD0001A604FF4967000F0F5F9DAE7AFF3008092
:100AE0006666666666660A40002001400000303F88
:100AF0002C000020280000202B4A136B43F0070332
:100B000013632A4B1A6842F480421A605A6822F032
:100B100080025A609A6842F480429A60DA6822F44D
:100B20008042DA609A6942F400029A611A6842F0DF
:100B300080521A605A6822F480425A609A6842F0E1
:100B400080529A60DA6822F08052DA609A6942F044
:100B500080429A61164A116841F0804111605168E3
:100B600021F400415160916841F040419160D168A9
:100B700021F08041D160516A21F0704121F00101E2
:100B800041F0010151621A6842F00C021A605A6881
:100B900022F002025A609A6842F004029A60DA680F
:100BA00022F00402DA60704700380240000402407C
:100BB000000002403B4A136823F0F80343F080032F
:100BC000136000239360374B9B6813F00C0FFAD12E
:100BD000344A136823F080731360324B1B6813F0A0
:100BE000007FFAD12F4A136823F4102313602D4B92
:100BF0001B6813F4003FFAD12A4B1A6822F48022B2
:100C00001A601A6842F480321A60264B1B6813F48B
:100C1000003FFAD0234B1A6822F480221A601A6827
:100C200042F400221A6000225A605A6842F480029C
:100C30005A605A6822F03F0242F004025A605A6831
:100C40006FF38E1242F434525A605A6822F44032E2
:100C50005A601A6842F080721A60124B1B6813F0D7
:100C6000007FFAD10F4B9A6822F0030242F0020291
:100C70009A609A6822F0F0029A609A6822F4E05230
:100C800042F4A0529A609A6822F4604242F4004210
:100C90009A60054A136823F00F0343F005031360BD
:100CA000704700BF00380240003C0240084A536CC5
:100CB00043F480435364074AD36823F4E0631B047E
:100CC0001B0C43F0BF6343F40033D360704700BF95
:100CD0000038024000ED00E04FF0E0231A6922F0F6
:100CE00001021A611A6942F002021A611A6942F09D
:100CF00004021A615A6902F07F4206490A435A61A6
:100D00009A6902F07F420A439A611A6942F001022D
:100D10001A6170471FBF0200214B5A6C42F001025A
:100D20005A641A6C42F001021A644FF080439A68C8
:100D300022F007029A6000221A605A601A6822F0B4
:100D400010021A601A6822F060021A60DA6842F033
:100D50000102DA609A6A6FF30F0242F48C5242F099
:100D600013029A62DA6A42F20F72DA621A6A42F087
:100D700001021A629A6942F060029A615A6B6FF33B
:100D80000F0242F49C5242F007025A635A6942F041
:100D900001025A611A6842F001021A60704700BFEE
:100DA00000380240154A536843F480335360144AB4
:100DB000536C43F480735364124B00225A609A6060
:100DC0009A6822F001029A605A6822F040725A60D2
:100DD0009A6842F002029A60DA6A22F47002DA62D9
:100DE0005A6B42F009025A631A6922F060521A6182
:100DF0009A6842F001029A60704700BF00230140E8
:100E00000038024000200140044A13680133136097
:100E1000034A136801331360704700BF24000020A9
:100E20001C000020024A136823F00203136070477D
:100E3000002001400D4A136923F0010313610C4B9C
:100E40001B784BB902F58232936943F080039361BA
:100E5000074B01221A707047064A936943F4000356
:100E60009361034B00221A70704700BF00000140DD
:100E700031000020000402404FF08042136923F04B
:100E8000010313610C4B1B786BB902F501329369B6
:100E900043F480439361084B01221A70074A136898
:100EA000013313607047064A936943F080439361AE
:100EB000014B00221A70F1E73000002020000020D2
:100EC00000040240054B1B68834202D3034B0022FF
:100ED0001A60024B1B688342FBD37047240000203A
:100EE000DFF830D00C480D490D4A002302E0D458F9
:100EF000C4500433C4188C42F9D30A4A0A4C002364
:100F000001E013600432A242FBD300F011F8FFF7B6
:100F1000B3FD704700000320000000200000002007
:100F2000980F00080000002034000020FEE70000B9
:100F300070B50D4D0D4C641BA4100026A64209D1BE
:100F40000B4D0C4C00F018F8641BA4100026A642B0
:100F500005D170BD55F8043B98470136EEE755F8CA
:100F6000043B98470136F2E7900F0008900F000805
:100F7000900F0008940F0008F8B500BFF8BC08BC3B
:100F80009E467047F8B500BFF8BC08BC9E46704747
:040F90005D0A0008EE
:040F9400390A00080E
:0400000508000EE100
:00000001FF
