:020000040800F2
:100000000000032075050008C1050008C1050008AF
:10001000C1050008C1050008C10500080000000076
:10002000000000000000000000000000C105000802
:10003000C105000800000000C105000849050008CE
:10004000C1050008C1050008C1050008C105000878
:10005000C1050008C1050008C1050008C105000868
:10006000C1050008C1050008C1050008C105000858
:10007000C1050008C1050008C1050008C105000848
:10008000C1050008C10500082D050008C1050008CC
:10009000C1050008C1050008C1050008C105000828
:1000A000C1050008C1050008C1050008C105000818
:1000B000C105000859050008C1050008C105000870
:1000C000C1050008C1050008C1050008C1050008F8
:1000D000C1050008C1050008C1050008C1050008E8
:1000E000C1050008C1050008C1050008C1050008D8
:1000F000C1050008C1050008C1050008C1050008C8
:10010000C1050008C1050008C1050008C1050008B7
:10011000C1050008C1050008C1050008C1050008A7
:10012000C1050008C1050008C1050008C105000897
:10013000C1050008C1050008C1050008C105000887
:10014000C1050008C1050008C1050008C105000877
:10015000C1050008C1050008C1050008C105000867
:10016000C1050008C1050008C1050008C105000857
:10017000C1050008C1050008C10500080000000015
:10018000C1050008C1050008C1050008C105000837
:10019000C1050008C1050008C1050008C105000827
:0C01A000C1050008C1050008C1050008E9
:1001AC0010B5054C237833B9044B13B10448AFF3A5
:1001BC0000800123237010BD00000020000000000F
:1001CC000C06000808B5034B1BB103490348AFF3F9
:1001DC00008008BD00000000040000200C06000890
:1001EC0008B500F033F800F087F800F00BF900F0D8
:1001FC0029F900F047F9034B1B885B00024A536353
:10020C00F9E700BF200000200004004000B500F01A
:10021C000700C0F1070CBCF1040F28BF4FF0040C11
:10022C00031D062B0FD9C31E4FF0FF3E0EFA0CF028
:10023C0021EA000199400EFA03FE22EA0E0241EA7D
:10024C0002005DF804FB0023EEE70000274A136B65
:10025C0043F007031363264B1A6842F080521A606E
:10026C005A6822F480425A609A6842F080529A602E
:10027C00DA6822F08052DA609A6942F080429A6120
:10028C001C4A116841F400511160516821F0400181
:10029C005160916841F440519160D16821F48051D2
:1002AC00D160116A21F0706141F0007111621A681D
:1002BC0042F00C021A605A6822F002025A609A68E4
:1002CC0042F004029A60DA6822F00402DA6003F564
:1002DC0080631A6842F400221A609A6842F4402241
:1002EC009A605A6A22F0F0025A6270470038024053
:1002FC000004024000000240404A136823F0F80357
:10030C0043F080031360002393603C4B9B6813F015
:10031C000C0FFAD1394A136823F080731360374BF2
:10032C001B6813F0007FFAD1344A136823F41023AE
:10033C001360324B1B6813F4003FFAD12F4B1A6831
:10034C0022F480221A601A6842F480321A602B4B15
:10035C001B6813F4003FFAD0284B1A6822F4802251
:10036C001A601A6842F400221A6000225A605A6815
:10037C0042F480025A605A6822F03F0242F00402B2
:10038C005A605A686FF38E1242F434525A605A68AB
:10039C0022F440325A601A6842F080721A60174B8D
:1003AC001B6813F0007FFAD1144B9A6822F00302F9
:1003BC0042F002029A609A6822F0F0029A609A68FF
:1003CC0022F4E05242F4A0529A609A6822F46042FD
:1003DC0042F400429A609A6822F0605242F0405215
:1003EC009A609A6822F040429A60054A136823F09A
:1003FC000F0343F005031360704700BF0038024041
:10040C00003C02404FF0E0231A6922F001021A610D
:10041C001A6942F002021A611A6942F004021A6166
:10042C005A6902F07F4206490A435A619A6902F0FE
:10043C007F420A439A611A6942F001021A617047BD
:10044C001FBF02000D4A136C43F0020313640C4BE4
:10045C0059229A6241F6FD72DA629A6922F003021D
:10046C009A619A6942F060029A611A6A42F001023A
:10047C001A621A6842F001021A6070470038024092
:10048C000004004038B5214A536843F4803353606C
:10049C001F4A536C43F4807353641E4C00226260F9
:1004AC00A260A36823F00103A360636823F0407388
:1004BC006360A36843F00203A360636843F0200306
:1004CC006360154D4FF480232B60144BD8680521C5
:1004DC00C0F30220FFF79AFE0001C0B285F81203A8
:1004EC00E36A23F47003E362636B43F00903636311
:1004FC00236923F060532361A36843F00103A360D5
:10050C00A36843F08043A36038BD00BF00230140C3
:10051C00003802400020014000E100E000ED00E066
:10052C00044B1A6822F002021A60DA6C024B1A8031
:10053C00704700BF0020014020000020024A1388B1
:10054C0001331380704700BF22000020044A136956
:10055C0023F001031361034A1368013313607047DE
:10056C00000400401C000020DFF830D00C480D497E
:10057C000D4A002302E0D458C4500433C4188C42F2
:10058C00F9D30A4A0A4C002301E013600432A24258
:10059C00FBD300F011F8FFF723FE70470000032097
:1005AC0000000020000000202C06000800000020A5
:1005BC0024000020FEE7000070B50D4D0D4C641BAF
:1005CC00A4100026A64209D10B4D0C4C00F018F8D3
:1005DC00641BA4100026A64205D170BD55F8043B3F
:1005EC0098470136EEE755F8043B98470136F2E799
:1005FC002406000824060008240600082806000823
:10060C00F8B500BFF8BC08BC9E467047F8B500BFF3
:08061C00F8BC08BC9E467047C3
:04062400D1010008F8
:04062800AD01000818
:040000050800057575
:00000001FF
