:020000040800F2
:1000000000000320E5070008310800083108000857
:10001000310800083108000831080008000000001D
:10002000000000000000000000000000310800088F
:1000300031080008000000003108000869070008C6
:1000400031080008310800083108000831080008AC
:10005000310800083108000831080008310800089C
:10006000310800083108000831080008310800088C
:10007000310800083108000831080008310800087C
:10008000310800083108000831080008310800086C
:10009000310800083108000831080008310600085E
:1000A000310800083108000831080008310800084C
:1000B000310800083108000831080008310800083C
:1000C000310800083108000831080008310800082C
:1000D000310800083108000831080008310800081C
:1000E000C906000831080008310800083108000876
:1000F00031080008310800083108000831080008FC
:1001000031080008310800083108000831080008EB
:1001100031080008310800083108000831080008DB
:1001200031080008310800083108000831080008CB
:1001300031080008310800083108000831080008BB
:1001400031080008310800083108000831080008AB
:10015000310800083108000831080008310800089B
:10016000310800083108000831080008310800088B
:1001700031080008310800083108000800000000BC
:10018000310800083108000831080008310800086B
:10019000310800083108000831080008310800085B
:0C01A00031080008310800083108000890
:1001AC0010B5054C237833B9044B13B10448AFF3A5
:1001BC0000800123237010BD04000020000000000B
:1001CC007C08000808B5034B1BB103490348AFF387
:1001DC00008008BD00000000080000207C0800081A
:1001EC0008B500F05FF800F03BF800F0D9F800F02B
:1001FC005BF900F0B9F900F0D7F900F0E1F9064B22
:10020C009A6842F080429A60DA6C044B1A604FF4A0
:10021C00967000F0D3FAF2E7002001402000002095
:10022C0000B500F00700C0F1070CBCF1040F28BFAB
:10023C004FF0040C031D062B0FD9C31E4FF0FF3ECD
:10024C000EFA0CF021EA000199400EFA03FE22EAA4
:10025C000E0241EA02005DF804FB0023EEE7000009
:10026C000F4BD3F8000440F08050C3F80004D3F8CF
:10027C00081441F08051C3F80814D3F8182442F044
:10028C008042C3F8182440F00100C3F8000441F088
:10029C000101C3F8081442F48032C3F818247047E3
:1002AC00000002403B4A136B43F0060313633A4BC6
:1002BC001A6842F480421A605A6822F080025A602E
:1002CC009A6842F480429A60DA6822F48042DA60DA
:1002DC009A6942F400029A611A6842F480321A60F8
:1002EC005A6822F480725A609A6842F480329A609A
:1002FC00DA6822F48032DA609A6942F080729A618C
:10030C001A6842F480321A601A6842F480221A6029
:10031C005A6822F400725A609A6842F480229A60F9
:10032C00DA6822F48022DA609A6942F000729A61EB
:10033C001A6842F480121A605A6822F480625A6079
:10034C009A6842F480129A60DA6822F48012DA60B9
:10035C009A6942F080629A61104A116841F4002156
:10036C001160916841F440219160516A21F0F001D3
:10037C0051621A6842F00C021A605A6822F00202AA
:10038C005A609A6842F004029A60DA6822F0040219
:10039C00DA60704700380240000402400008024056
:1003AC003F4A136823F0F80343F0800313600023E3
:1003BC0093603B4B9B6813F00C0FFAD1384A1368CF
:1003CC0023F080731360364B1B6813F0007FFAD157
:1003DC00334A136823F410231360314B1B6813F456
:1003EC00003FFAD12E4B1A6822F480221A601A6848
:1003FC0042F480321A602A4B1B6813F4003FFAD087
:10040C00274B1A6822F480221A601A6842F40022E0
:10041C001A6000225A605A6842F480025A605A6884
:10042C0022F03F0242F004025A605A686FF38E12B7
:10043C0042F434525A605A6822F440325A601A68B4
:10044C0042F080721A60164B1B6813F0007FFAD1D1
:10045C00134B9A6822F0030242F002029A609A68E7
:10046C0022F0F0029A609A6822F4E05242F4A05210
:10047C009A609A6822F4604242F400429A609A6848
:10048C0042F060529A609A6822F040429A60054AA3
:10049C00136823F00F0343F005031360704700BF8C
:1004AC0000380240003C0240F8B52A4A536C43F431
:1004BC0080435364284EF36823F4E0631B041B0C45
:1004CC0043F0BF6343F40033F360244F7B6923F0A4
:1004DC00F00343F020037B61214C236843F4005369
:1004EC002360A36843F40053A360E36843F4005310
:1004FC00E360F06800220221C0F30220FFF790FEB7
:10050C000001C0B2174D85F828034FF480736B605F
:10051C00FB6823F4706343F40073FB60236843F0BF
:10052C0040032360A36843F04003A360E36843F0F7
:10053C004003E360F06800220221C0F30220FFF7C1
:10054C006FFE0001C0B285F817034FF400032B6057
:10055C00F8BD00BF0038024000ED00E0003801405B
:10056C00003C014000E100E04FF0E0231A6922F06A
:10057C0001021A611A6942F002021A611A6942F008
:10058C0004021A615A6902F07F4206490A435A6111
:10059C009A6902F07F420A439A611A6942F0010299
:1005AC001A6170471FBF0200044B1A6C42F0010223
:1005BC001A645A6C42F001025A64704700380240C7
:1005CC00154A536843F480335360144A536C43F414
:1005DC0080735364124B00225A609A609A6822F01E
:1005EC0001029A605A6822F040725A609A6842F08E
:1005FC0002029A60DA6A22F47002DA625A6B42F0F2
:10060C0008025A631A6922F0E0621A619A6842F091
:10061C0001029A60704700BF00230140003802407D
:10062C00002001401D4B1B6913F0400F09D01C4BDF
:10063C001B7863B91A4B01221A701A4B00221A60EC
:10064C0005E0174B1B78012B07D0012B19D0164A4C
:10065C00536943F0400353617047124A1268B2F574
:10066C00FA6FF2D3114B01221A70114B1978114AFF
:10067C0012F81130013302F81130094B00221A70B4
:10068C00E5E7084B1B681D2BE1D9054B00221A70BE
:10069C00094A137801331370D9E700BF00080240F0
:1006AC002700002048000020003C014025000020CD
:1006BC00280000203800002000000020204B1B697F
:1006CC0013F4005F09D01F4B1B7863B91D4B01223B
:1006DC001A701D4B00221A6005E01A4B1B78012B77
:1006EC0007D0012B19D0194A536943F400535361B5
:1006FC007047154A1268B2F5FA6FF2D3144B012207
:10070C001A70144B1A78144B03EB42035A780132CB
:10071C005A700C4B00221A70E5E70B4B1B681D2B13
:10072C00E1D9084B00221A700A4A13780133DBB264
:10073C001370052BD7D9134600221A70D3E700BFCC
:10074C00000802402600002044000020003C01402C
:10075C00240000202800002038000020114A1388B3
:10076C0001331380104B1B78012B05D00F4B1B78DA
:10077C00012B06D0002311E00D4A136801331360DE
:10078C00F4E70C4A136801331360F3E70A4931F8B4
:10079C001320013221F813200133DBB2052BF5D9DC
:1007AC00704700BF4C0000202700002026000020CE
:1007BC0048000020440000202C000020054B1B8822
:1007CC00834202D3034B00221A80024B1B888342C4
:1007DC00FBD370474C000020DFF830D00C480D499B
:1007EC000D4A002302E0D458C4500433C4188C4280
:1007FC00F9D30A4A0A4C002301E013600432A242E6
:10080C00FBD300F011F8FFF7EBFC7047000003205E
:10081C0000000020040000209C08000804000020B8
:10082C0050000020FEE7000070B50D4D0D4C641B10
:10083C00A4100026A64209D10B4D0C4C00F018F860
:10084C00641BA4100026A64205D170BD55F8043BCC
:10085C0098470136EEE755F8043B98470136F2E726
:10086C0094080008940800089408000898080008E8
:10087C00F8B500BFF8BC08BC9E467047F8B500BF81
:08088C00F8BC08BC9E46704751
:04089400D101000886
:04089800AD010008A6
:04089C000600000052
:04000005080007E503
:00000001FF
