:020000040800F2
:1000000000000320051100085111000851110008DB
:1000100051110008511100085111000800000000A2
:100020000000000000000000000000005111000866
:10003000511100080000000051110008891000084B
:100040005111000851110008511100085111000808
:1000500051110008511100085111000851110008F8
:1000600051110008511100085111000851110008E8
:1000700051110008511100085111000851110008D8
:1000800051110008511100085111000851110008C8
:10009000511100085111000851110008510F0008BA
:1000A00051110008511100085111000851110008A8
:1000B0005111000851110008511100085111000898
:1000C0005111000851110008511100085111000888
:1000D0005111000851110008511100085111000878
:1000E000E90F0008511100085111000851110008D2
:1000F0005111000851110008511100085111000858
:100100005111000851110008511100085111000847
:100110005111000851110008511100085111000837
:100120005111000851110008511100085111000827
:100130005111000851110008511100085111000817
:100140005111000851110008511100085111000807
:1001500051110008511100085111000851110008F7
:1001600051110008511100085111000851110008E7
:100170005111000851110008511100080000000041
:1001800051110008511100085111000851110008C7
:1001900051110008511100085111000851110008B7
:0C01A00051110008511100085111000815
:1001B00070B54FF0FF0C4CF4E06C1CEA11541DBFFD
:1001C0001CEA135594EA0C0F95EA0C0F00F0DEF8C8
:1001D0002C4481EA030621EA4C5123EA4C5350EAAD
:1001E000013518BF52EA033541F4801143F48013FE
:1001F00038D0A0FB02CE4FF00005E1FB02E506F08F
:100200000042E0FB03E54FF00006E1FB03569CF0E3
:10021000000F18BF4EF0010EA4F1FF04B6F5007FE9
:1002200064F5407404D25FEA4E0E6D4146EB06065B
:1002300042EAC62141EA55514FEAC52040EA5E50E4
:100240004FEACE2EB4F1FD0C88BFBCF5E06F1ED88E
:10025000BEF1004F08BF5FEA500E50F1000041EBC5
:10026000045170BD06F0004646EA010140EA020072
:1002700081EA0301B4EB5C04C2BFD4EB0C0541EA94
:10028000045170BD41F480114FF0000E013C00F3A9
:10029000AB8014F1360FDEBF002001F0004170BDCD
:1002A000C4F10004203C35DA0C341BDC04F11404E6
:1002B000C4F1200500FA05F320FA04F001FA05F272
:1002C00040EA020001F0004221F0004110EBD3703F
:1002D00021FA04F642EB06015EEA430E08BF20EA6B
:1002E000D37070BDC4F10C04C4F1200500FA04F30E
:1002F00020FA05F001FA04F240EA020001F00041A0
:1003000010EBD37041F100015EEA430E08BF20EA12
:10031000D37070BDC4F1200500FA05F24EEA020E5A
:1003200020FA04F301FA05F243EA020321FA04F089
:1003300001F0004121FA04F220EA020000EBD37040
:100340005EEA430E08BF20EAD37070BD94F0000F40
:100350000FD101F00046400041EB010111F4801F74
:1003600008BF013CF7D041EA060195F0000F18BF25
:10037000704703F00046520043EB030313F4801F61
:1003800008BF013DF7D043EA0603704794EA0C0F1B
:100390000CEA135518BF95EA0C0F0CD050EA410631
:1003A00018BF52EA4306D1D181EA030101F00041AE
:1003B0004FF0000070BD50EA410606BF10461946D6
:1003C00052EA430619D094EA0C0F02D150EA0136E2
:1003D00013D195EA0C0F05D152EA03361CBF104623
:1003E00019460AD181EA030101F0004141F0FE41C2
:1003F00041F470014FF0000070BD41F0FE4141F446
:10040000780170BD81F0004102E000BF83F000433D
:1004100030B54FEA41044FEA430594EA050F08BF9F
:1004200090EA020F1FBF54EA000C55EA020C7FEA63
:10043000645C7FEA655C00F0E2804FEA5454D4EBE0
:100440005555B8BF6D420CDD2C4480EA020281EAAA
:10045000030382EA000083EA010180EA020281EAE2
:100460000303362D88BF30BD11F0004F4FEA013134
:100470004FF4801C4CEA113102D0404261EB410143
:1004800013F0004F4FEA03334CEA133302D05242C9
:1004900063EB430394EA050F00F0A780A4F1010485
:1004A000D5F1200E0DDB02FA0EFC22FA05F28018BF
:1004B00041F1000103FA0EF2801843FA05F35941A5
:1004C0000EE0A5F120050EF1200E012A03FA0EFC24
:1004D00028BF4CF0020C43FA05F3C01851EBE3714E
:1004E00001F0004507D54FF0000EDCF1000C7EEB6B
:1004F00000006EEB0101B1F5801F1BD3B1F5001FA9
:100500000CD349085FEA30004FEA3C0C04F10104C7
:100510004FEA445212F5800F80F09A80BCF1004FF0
:1005200008BF5FEA500C50F1000041EB045141EA72
:10053000050130BD5FEA4C0C404141EB0101013C3B
:1005400028BFB1F5801FE9D291F0000F04BF01462A
:100550000020B1FA81F308BF2033A3F10B03B3F1FC
:1005600020020CDA0C3208DD02F1140CC2F10C028C
:1005700001FA0CF021FA02F10CE002F11402D8BFEA
:10058000C2F1200C01FA02F120FA0CFCDCBF41EAB6
:100590000C019040E41AA2BF01EB0451294330BD85
:1005A0006FEA04041F3C1CDA0C340EDC04F1140462
:1005B000C4F1200220FA04F001FA02F340EA030039
:1005C00021FA04F345EA030130BDC4F10C04C4F17F
:1005D000200220FA02F001FA04F340EA030029465F
:1005E00030BD21FA04F0294630BD94F0000F83F4A9
:1005F000801306BF81F480110134013D4EE77FEA8C
:10060000645C18BF7FEA655C29D094EA050F08BFD7
:1006100090EA020F05D054EA000C04BF19461046B8
:1006200030BD91EA030F1EBF0021002030BD5FEAFC
:10063000545C05D14000494128BF41F0004130BD24
:1006400014F580043CBF01F5801130BD01F0004578
:1006500045F0FE4141F470014FF0000030BD7FEAEB
:10066000645C1ABF194610467FEA655C1CBF0B46E6
:10067000024650EA013406BF52EA033591EA030FFD
:1006800041F4002130BD00BF90F0000F04BF0021F5
:10069000704730B54FF4806404F132044FF0000528
:1006A0004FF0000150E700BF90F0000F04BF0021A1
:1006B000704730B54FF4806404F1320410F0004507
:1006C00048BF40424FF000013EE700BF42004FEA02
:1006D000E2014FEA31014FEA02701FBF12F07F437F
:1006E00093F07F4F81F06051704732F07F4208BF36
:1006F000704793F07F4F04BF41F40021704730B53D
:100700004FF4607401F0004521F000411CE700BF88
:1007100050EA010208BF704730B54FF000050AE00B
:1007200050EA010208BF704730B511F0004502D50C
:10073000404261EB41014FF4806404F132045FEA0E
:10074000915C3FF4D8AE4FF003025FEADC0C18BFB7
:1007500003325FEADC0C18BF033202EBDC02C2F1A9
:10076000200300FA03FC20FA02F001FA03FE40EA3B
:100770000E0021FA02F11444BDE600BF4FEA410227
:10078000B2F1E04324BFB3F5001CDCF1FE5C0DD9EF
:1007900001F0004C4FEAC0024CEA5070B2F1004F39
:1007A00040EB830008BF20F00100704711F0804F3C
:1007B00021D113F13872BCBF01F00040704741F401
:1007C00080114FEA5252C2F11802C2F1200C10FA05
:1007D0000CF320FA02F018BF40F001004FEAC123E9
:1007E0004FEAD32303FA0CFC40EA0C0023FA02F38D
:1007F0004FEA4303CCE77FEA625307D150EA013363
:100800001EBF4FF0FE4040F44000704701F0004032
:1008100040F0FE4040F40000704700BF80F0004010
:1008200002E000BF81F0004142001FBF5FEA4103C8
:1008300092EA030F7FEA226C7FEA236C6AD04FEAC8
:100840001262D2EB1363C1BFD2184140484041400D
:10085000B8BF5B42192B88BF704710F0004F40F4BF
:10086000000020F07F4018BF404211F0004F41F4DB
:10087000000121F07F4118BF494292EA030F3FD0A7
:10088000A2F1010241FA03FC10EB0C00C3F12003BA
:1008900001FA03F100F0004302D5494260EB400049
:1008A000B0F5000F13D3B0F1807F06D340084FEAB4
:1008B000310102F10102FE2A51D2B1F1004F40EBA9
:1008C000C25008BF20F0010040EA03007047490011
:1008D00040EB0000013A28BFB0F5000FEDD2B0FAAE
:1008E00080FCACF1080CB2EB0C0200FA0CF0AABFD1
:1008F00000EBC25052421843BCBFD040184370476F
:1009000092F0000F81F4000106BF80F40000013274
:10091000013BB5E74FEA41037FEA226C18BF7FEA4B
:10092000236C21D092EA030F04D092F0000F08BF8D
:100930000846704790EA010F1CBF0020704712F074
:100940007F4F04D1400028BF40F00040704712F1B3
:1009500000723CBF00F50000704700F0004343F018
:10096000FE4040F4000070477FEA226216BF08464E
:100970007FEA23630146420206BF5FEA412390EA11
:10098000010F40F4800070474FF0000304E000BF07
:1009900010F0004348BF40425FEA000C08BF7047B8
:1009A00043F0964301464FF000001CE050EA01027C
:1009B00008BF70474FF000030AE000BF50EA010291
:1009C00008BF704711F0004302D5404261EB41017E
:1009D0005FEA010C02BF84460146002043F0B643A3
:1009E00008BFA3F18053A3F50003BCFA8CF2083AC8
:1009F000A3EBC25310DB01FA02FC634400FA02FCD1
:100A0000C2F12002BCF1004F20FA02F243EB0200D7
:100A100008BF20F00100704702F1200201FA02FC39
:100A2000C2F1200250EA4C0021FA02F243EB02002C
:100A300008BF20EADC70704710B5054C237833B945
:100A4000044B13B10448AFF300800123237010BDA1
:100A500018000020000000009C11000808B5034B9E
:100A60001BB103490348AFF3008008BD000000003C
:100A70001C0000209C110008002313E00B4911F812
:100A8000132001EB4301497802EB42020A44084972
:100A900031F81220074921F81320074921F81320C3
:100AA0000133DBB2052BE9D9704700BF58000020A5
:100AB000040000204C000020400000200000000046
:100AC00008B500F07DF800F059F800F0F7F800F0F4
:100AD00079F900F0D7F900F0F5F900F0FFF9FFF728
:100AE000CBFF134A936843F080439360104B1B681D
:100AF00013F0020FFAD00E4BD86CFFF745FFFFF74B
:100B0000E5FD09A3D3E90023FFF752FB0022094BBF
:100B1000FFF74EFBFFF732FE074B18604FF496705D
:100B200000F0E2FADDE700BF6666666666660A40C8
:100B3000002001400000303F3400002000B500F0EC
:100B40000700C0F1070CBCF1040F28BF4FF0040CE4
:100B5000031D062B0FD9C31E4FF0FF3E0EFA0CF0FB
:100B600021EA000199400EFA03FE22EA0E0241EA50
:100B700002005DF804FB0023EEE700000F4BD3F802
:100B8000000440F08050C3F80004D3F8081441F08A
:100B90008051C3F80814D3F8182442F08042C3F8F7
:100BA000182440F00100C3F8000441F00101C3F82B
:100BB000081442F48032C3F8182470470000024041
:100BC0003B4A136B43F0060313633A4B1A6842F433
:100BD00080421A605A6822F080025A609A6842F491
:100BE00080429A60DA6822F48042DA609A6942F4BC
:100BF00000029A611A6842F480321A605A6822F43C
:100C000080725A609A6842F480329A60DA6822F4FC
:100C10008032DA609A6942F080729A611A6842F40E
:100C200080321A601A6842F480221A605A6822F4EC
:100C300000725A609A6842F480229A60DA6822F45C
:100C40008022DA609A6942F000729A611A6842F46E
:100C500080121A605A6822F480625A609A6842F4DC
:100C600080129A60DA6822F48012DA609A6942F09F
:100C700080629A61104A116841F400211160916804
:100C800041F440219160516A21F0F00151621A68EB
:100C900042F00C021A605A6822F002025A609A6806
:100CA00042F004029A60DA6822F00402DA607047C7
:100CB0000038024000040240000802403F4A136826
:100CC00023F0F80343F080031360002393603B4B51
:100CD0009B6813F00C0FFAD1384A136823F0807325
:100CE0001360364B1B6813F0007FFAD1334A136848
:100CF00023F410231360314B1B6813F4003FFAD127
:100D00002E4B1A6822F480221A601A6842F480324C
:100D10001A602A4B1B6813F4003FFAD0274B1A685D
:100D200022F480221A601A6842F400221A6000221B
:100D30005A605A6842F480025A605A6822F03F02B0
:100D400042F004025A605A686FF38E1242F4345231
:100D50005A605A6822F440325A601A6842F080722F
:100D60001A60164B1B6813F0007FFAD1134B9A6878
:100D700022F0030242F002029A609A6822F0F00226
:100D80009A609A6822F4E05242F4A0529A609A68FB
:100D900022F4604242F400429A609A6842F0605243
:100DA0009A609A6822F040429A60054A136823F0DC
:100DB0000F0343F005031360704700BF0038024083
:100DC000003C0240F8B52A4A536C43F48043536414
:100DD000284EF36823F4E0631B041B0C43F0BF634D
:100DE00043F40033F360244F7B6923F0F00343F0B6
:100DF00020037B61214C236843F400532360A368E4
:100E000043F40053A360E36843F40053E360F068E5
:100E100000220221C0F30220FFF790FE0001C0B2C1
:100E2000174D85F828034FF480736B60FB6823F43B
:100E3000706343F40073FB60236843F04003236056
:100E4000A36843F04003A360E36843F04003E3601A
:100E5000F06800220221C0F30220FFF76FFE0001BC
:100E6000C0B285F817034FF400032B60F8BD00BF34
:100E70000038024000ED00E000380140003C014035
:100E800000E100E04FF0E0231A6922F001021A614C
:100E90001A6942F002021A611A6942F004021A61E8
:100EA0005A6902F07F4206490A435A619A6902F080
:100EB0007F420A439A611A6942F001021A6170473F
:100EC0001FBF0200044B1A6C42F001021A645A6CF4
:100ED00042F001025A64704700380240194A5368D0
:100EE00043F480335360184A536C43F48073536463
:100EF000164B00225A609A609A6822F001029A60AA
:100F00005A6822F040725A60DA6A42F48012DA6259
:100F10001A6B42F008021A631A6922F060521A61D1
:100F20009A6822F070629A609A6842F080529A60E1
:100F30009A6842F001029A609A6842F080429A6090
:100F4000704700BF002301400038024000200140EC
:100F50001D4B1B6913F0400F09D01C4B1B7863B964
:100F60001A4B01221A701A4B00221A6005E0174B27
:100F70001B78012B07D0012B19D0164A536943F077
:100F8000400353617047124A1268B2F5FA6FF2D308
:100F9000114B01221A70114B1978114A12F81130B5
:100FA000013302F81130094B00221A70E5E7084BB3
:100FB0001B681D2BE1D9054B00221A70094A1378D2
:100FC00001331370D9E700BF000802403B00002046
:100FD00068000020003C0140390000203C00002057
:100FE0005800002000000020204B1B6913F4005F14
:100FF00009D01F4B1B7863B91D4B01221A701D4B82
:1010000000221A6005E01A4B1B78012B07D0012B38
:1010100019D0194A536943F4005353617047154A74
:101020001268B2F5FA6FF2D3144B01221A70144B06
:101030001A78144B03EB42035A7801325A700C4B66
:1010400000221A70E5E70B4B1B681D2BE1D9084BFA
:1010500000221A700A4A13780133DBB21370052B91
:10106000D7D9134600221A70D3E700BF0008024008
:101070003A00002064000020003C014038000020BD
:101080003C00002058000020114A138801331380CF
:10109000104B1B78012B05D00F4B1B78012B06D072
:1010A000002311E00D4A136801331360F4E70C4A82
:1010B000136801331360F3E70A4931F81320013252
:1010C00021F813200133DBB2052BF5D9704700BF9F
:1010D0006C0000203B0000203A0000206800002047
:1010E0006400002040000020054B1B88834202D38F
:1010F000034B00221A80024B1B888342FBD37047AC
:101100006C000020DFF830D00C480D490D4A002358
:1011100002E0D458C4500433C4188C42F9D30A4AAC
:101120000A4C002301E013600432A242FBD300F01A
:1011300011F8FFF7C5FC70470000032000000020F5
:1011400018000020BC1100081800002070000020CA
:10115000FEE7000070B50D4D0D4C641BA410002679
:10116000A64209D10B4D0C4C00F018F8641BA410DA
:101170000026A64205D170BD55F8043B98470136BC
:10118000EEE755F8043B98470136F2E7B411000842
:10119000B4110008B4110008B8110008F8B500BF78
:1011A000F8BC08BC9E467047F8B500BFF8BC08BC48
:0411B0009E467047A0
:0411B4005D0A0008C8
:0411B800390A0008E8
:1011BC0006000000E2048001FA0041033801E3005C
:0811CC0071020701C8000000D8
:0400000508001105D9
:00000001FF
