:020000040800F2
:1000000000000320ED050008390600083906000845
:10001000390600083906000839060008000000000B
:100020000000000000000000000000003906000889
:1000300039060008000000003906000841050008E4
:100040003906000839060008390600083906000894
:100050003906000839060008390600083906000884
:100060003906000839060008390600083906000874
:100070003906000839060008390600083906000864
:100080003906000839060008390600083906000854
:100090003906000839060008390600083906000844
:1000A000390600085D050008390600083906000811
:1000B000A1050008390600083906000839060008BD
:1000C0003906000839060008390600083906000814
:1000D0003906000839060008390600083906000804
:1000E00039060008390600083906000839060008F4
:1000F00039060008390600083906000839060008E4
:1001000039060008390600083906000839060008D3
:1001100039060008390600083906000839060008C3
:1001200039060008390600083906000839060008B3
:1001300039060008390600083906000839060008A3
:100140003906000839060008390600083906000893
:100150003906000839060008390600083906000883
:100160003906000839060008390600083906000873
:1001700039060008390600083906000800000000AA
:100180003906000839060008390600083906000853
:100190003906000839060008390600083906000843
:0C01A0003906000839060008390600087E
:1001AC0010B5054C237833B9044B13B10448AFF3A5
:1001BC0000800123237010BD00000020000000000F
:1001CC008406000808B5034B1BB103490348AFF381
:1001DC00008008BD00000000040000208406000818
:1001EC0008B500F029F800F06BF800F0E5F800F025
:1001FC00F9F800F017F9FEE700B500F00700C0F1C0
:10020C00070CBCF1040F28BF4FF0040C031D062B88
:10021C000FD9C31E4FF0FF3E0EFA0CF021EA00017D
:10022C0099400EFA03FE22EA0E0241EA02005DF842
:10023C0004FB0023EEE700001F4A136B43F0060398
:10024C0013631E4B1A6842F480421A605A6822F0FB
:10025C0080025A609A6842F480429A60DA6822F40A
:10026C008042DA609A6942F400029A611A6842F09C
:10027C0080521A605A6822F480425A609A6842F09E
:10028C0080529A60DA6822F08052DA609A6942F001
:10029C0080429A611A6842F00C021A605A6822F085
:1002AC0002025A609A6842F004029A60DA6822F0FC
:1002BC000402DA60704700BF0038024000040240BC
:1002CC003B4A136823F0F80343F0800313600023C8
:1002DC009360374B9B6813F00C0FFAD1344A1368B8
:1002EC0023F080731360324B1B6813F0007FFAD13C
:1002FC002F4A136823F4102313602D4B1B6813F43F
:10030C00003FFAD12A4B1A6822F480221A601A682C
:10031C0042F480321A60264B1B6813F4003FFAD06B
:10032C00234B1A6822F480221A601A6842F40022C5
:10033C001A6000225A605A6842F480025A605A6865
:10034C0022F03F0242F004025A605A686FF38E1298
:10035C0042F434525A605A6822F440325A601A6895
:10036C0042F080721A60124B1B6813F0007FFAD1B6
:10037C000F4B9A6822F0030242F002029A609A68CC
:10038C0022F0F0029A609A6822F4E05242F4A052F1
:10039C009A609A6822F4604242F400429A60054ADC
:1003AC00136823F00F0343F005031360704700BF7D
:1003BC0000380240003C0240084A536C43F480432E
:1003CC005364074AD36823F4E0631B041B0C43F00B
:1003DC00BF6343F40033D360704700BF0038024062
:1003EC0000ED00E04FF0E0231A6922F001021A61DF
:1003FC001A6942F002021A611A6942F004021A6187
:10040C005A6902F07F4206490A435A619A6902F01E
:10041C007F420A439A611A6942F001021A617047DD
:10042C001FBF02002DE9F843DFF8F890D9F84430EB
:10043C0043F00103C9F844303B4CA36823F0070395
:10044C00A360002525606560236843F010032360DA
:10045C00236823F060032360E36843F00103E36047
:10046C00A36A6FF30F0343F40C5343F02703A36207
:10047C00E36A42F20F78C4F82C802C4E4FF00073D4
:10048C0033602B4FF8682A460321C0F30220FFF794
:10049C00B3FE0001C0B286F81903236843F00103D0
:1004AC002360636943F001036361D9F8403043F082
:1004BC000103C9F840304FF08044A36823F00703D0
:1004CC00A36025606560236823F010032360236814
:1004DC0023F060032360E36843F00103E360A36A45
:1004EC006FF30F0343F48C5343F01303A362E36ADB
:1004FC00C4F82C804FF080533360F8682A460321EF
:10050C00C0F30220FFF778FE0001C0B286F81C038E
:10051C00236843F001032360636943F001036361C3
:10052C00BDE8F883003802400000014000E100E023
:10053C0000ED00E0044A136801331360034A1368AA
:10054C0001331360704700BF240000201C00002002
:10055C000D4A136923F0010313610C4B1B784BB943
:10056C0002F58232936943F080039361074B0122B9
:10057C001A707047064A936943F400039361034B66
:10058C0000221A70704700BF0000014029000020B3
:10059C00000402404FF08042136923F00103136101
:1005AC000C4B1B786BB902F50132936943F4804311
:1005BC009361084B01221A70074A136801331360C8
:1005CC007047064A936943F080439361014B0022C4
:1005DC001A70F1E7280000202000002000040240DF
:1005EC00DFF830D00C480D490D4A002302E0D458F6
:1005FC00C4500433C4188C42F9D30A4A0A4C002361
:10060C0001E013600432A242FBD300F011F8FFF7B3
:10061C00E7FD7047000003200000002000000020D0
:10062C00A4060008000000202C000020FEE70000BB
:10063C0070B50D4D0D4C641BA4100026A64209D1BB
:10064C000B4D0C4C00F018F8641BA4100026A642AD
:10065C0005D170BD55F8043B98470136EEE755F8C7
:10066C00043B98470136F2E79C0600089C060008FC
:10067C009C060008A0060008F8B500BFF8BC08BC32
:10068C009E467047F8B500BFF8BC08BC9E46704744
:04069C00D101000880
:0406A000AD010008A0
:04000005080005EDFD
:00000001FF
